{
  "contractName": "Counter",
  "abi": [
    {
      "constant": true,
      "inputs": [],
      "name": "count",
      "outputs": [
        {
          "internalType": "int256",
          "name": "",
          "type": "int256"
        }
      ],
      "payable": false,
      "stateMutability": "view",
      "type": "function"
    },
    {
      "constant": false,
      "inputs": [],
      "name": "increaseCount",
      "outputs": [
        {
          "internalType": "int256",
          "name": "",
          "type": "int256"
        }
      ],
      "payable": false,
      "stateMutability": "nonpayable",
      "type": "function"
    },
    {
      "constant": false,
      "inputs": [],
      "name": "decreaseCount",
      "outputs": [
        {
          "internalType": "int256",
          "name": "",
          "type": "int256"
        }
      ],
      "payable": false,
      "stateMutability": "nonpayable",
      "type": "function"
    },
    {
      "constant": true,
      "inputs": [],
      "name": "getCount",
      "outputs": [
        {
          "internalType": "int256",
          "name": "",
          "type": "int256"
        }
      ],
      "payable": false,
      "stateMutability": "view",
      "type": "function"
    }
  ],
  "bytecode": "0x60806040526000805534801561001457600080fd5b50610144806100246000396000f3fe608060405234801561001057600080fd5b506004361061004c5760003560e01c806306661abd14610051578063a87d942c1461006f578063abd1b73d1461008d578063e834cbb3146100ab575b600080fd5b6100596100c9565b6040518082815260200191505060405180910390f35b6100776100cf565b6040518082815260200191505060405180910390f35b6100956100d8565b6040518082815260200191505060405180910390f35b6100b36100f3565b6040518082815260200191505060405180910390f35b60005481565b60008054905090565b60008060008154809291906001019190505550600054905090565b600080600081548092919060019003919050555060005490509056fea265627a7a7231582037895cc0f2faeabb7cdc98ff2a6572cda77d00b3b3973744102f49a6f53e9dc064736f6c634300050c0032",
  "source": "pragma solidity ^0.5.11;\r\n\r\ncontract Counter {\r\n    int public count = 0;\r\n    function increaseCount() public returns(int){\r\n        count++;\r\n        return count;\r\n    }\r\n\r\n    function decreaseCount() public returns(int){\r\n        count--;\r\n        return count;\r\n    }\r\n\r\n    function getCount() public view returns(int){\r\n        return count;\r\n    }\r\n}",
  "sourcePath": "C:/Users/AMIRS/Documents/Development Work/Blockchain/counter_DApp/contracts/Counter.sol",
  "compiler": {
    "name": "solc",
    "version": "0.5.12+commit.7709ece9.Emscripten.clang"
  },
  "schemaVersion": "3.0.19",
  "updatedAt": "2019-11-19T22:39:51.232Z",
  "networkType": "ethereum",
  "devdoc": {
    "methods": {}
  },
  "userdoc": {
    "methods": {}
  }
}